:1000000010C028C027C026C025C024C083C122C07C
:1000100021C020C01FC01EC01DC01CC01BC01AC0F4
:1000200019C011241FBECFEDCDBF10E0A0E6B0E097
:10003000EAE9F6E002C005900D92A436B107D9F7BF
:1000400020E0A4E6B0E001C01D92AE37B207E1F7B0
:10005000FDD021C3D5CFCF92DF92EF92FF92609176
:100060006D0070916E0080916F009091700028EC8F
:1000700030E040E050E0EDD2822F932FA42FB52F37
:10008000209368003093690040936A0050936B009E
:10009000C0906400D0906500E0906600F09067002A
:1000A0008C159D05AE05BF0509F4CBC020936400F7
:1000B0003093650040936600509367008F3F910531
:1000C000A105B10509F058F420937D0010927C0041
:1000D00010927B0010927A0010927900A5C08115D1
:1000E00032E09307A105B10560F43FEF30937D0046
:1000F00020937C0010927B0010927A00109279007D
:1001000093C0811533E09307A105B10560F43FEF7B
:1001100030937D0030937C0020937B0010927A0016
:100120001092790081C0811534E09307A105B105D3
:1001300060F43FEF30937D0030937C0030937B0080
:1001400020937A00109279006FC0811535E09307F3
:10015000A105B10560F43FEF30937D0030937C0042
:1001600030937B0030937A00209379005DC0811535
:1001700036E09307A105B10568F4209520937D0032
:100180002FEF20937C0020937B0020937A00209314
:1001900079004AC0811537E09307A105B10568F4DD
:1001A00010927D00209520937C002FEF20937B0000
:1001B00020937A002093790037C0811538E09307A7
:1001C000A105B10568F410927D0010927C00209585
:1001D00020937B002FEF20937A002093790024C096
:1001E000811539E09307A105B10568F410927D00EF
:1001F00010927C0010927B00209520937A002FEFC4
:100200002093790011C081153AE09307A105B1054B
:1002100058F410927D0010927C0010927B00109296
:100220007A0020952093790081159A40A105B105A7
:1002300040F010926D0010926E0010926F001092BC
:100240007000FF90EF90DF90CF9008958AB38F6594
:100250008ABB8EB588608EBD8EB581608EBD84E60A
:1002600090E09BBD8ABD8CB182608CB97894F3DE3E
:100270008FEF80937800C0906000D0906100E09094
:100280006200F090630060917D0070E080E090E09B
:10029000E9D0A70196014AD1B2D06093770060916E
:1002A0007C0070E080E090E0DDD0A70196013ED1B7
:1002B000A6D06093760060917B0070E080E090E0D3
:1002C000D1D0A701960132D19AD060937500609188
:1002D0007A0070E080E090E0C5D0A701960126D1B9
:1002E0008ED0609374006091790070E080E090E0BF
:1002F000B9D0A70196011AD182D06093730020E093
:1003000030E04FE753E4C701B60110D178D06093D5
:100310007200ADCF1F920F920FB60F9211248F93E0
:100320009F93AF93BF931092710090916C00809156
:100330007700981718F481E08093710090916C0019
:1003400080917600981728F48091710082608093E4
:10035000710090916C0080917500981728F480913D
:10036000710084608093710090916C0080917400A2
:10037000981728F4809171008860809371009091A3
:100380006C0080917300981728F48091710080614F
:100390008093710090916C0080917200981728F4FE
:1003A00080917100806480937100809171008BBB9B
:1003B00080916D0090916E00A0916F00B0917000DF
:1003C0000196A11DB11D80936D0090936E00A093C6
:1003D0006F00B093700080916C008F5F80936C0011
:1003E00080916C008F3F11F410926C00BF91AF911F
:1003F0009F918F910F900FBE0F901F90189504D072
:100400006894B1118DC0089570D088F09F5790F016
:10041000B92F9927B751A0F0D1F0660F771F881F29
:10042000991F1AF0BA95C9F712C0B13081F077D090
:10043000B1E0089574C0672F782F8827B85F39F02E
:10044000B93FCCF3869577956795B395D9F73EF488
:1004500090958095709561957F4F8F4F9F4F089530
:10046000E89409C097FB3EF490958095709561954E
:100470007F4F8F4F9F4F9923A9F0F92F96E9BB2704
:100480009395F695879577956795B795F111F8CF80
:10049000FAF4BB0F11F460FF1BC06F5F7F4F8F4FEB
:1004A0009F4F16C0882311F096E911C0772321F0E1
:1004B0009EE8872F762F05C0662371F096E8862F79
:1004C00070E060E02AF09A95660F771F881FDAF7D0
:1004D000880F9695879597F9089557FD9058440F82
:1004E000551F59F05F3F71F04795880F97FB991F93
:1004F00061F09F3F79F08795089512161306140650
:10050000551FF2CF4695F1DF08C0161617061806DC
:10051000991FF1CF86957105610508940895E894B7
:10052000BB2766277727CB0197F908950AD080C0AB
:1005300071D028F076D018F0952309F062C067C01A
:10054000EFCFCBDFA8F39923D9F35523C9F3950F48
:1005500050E0551FAA27EE27FF27BB270024089449
:10056000679520F4E20FF31FB41F0A1E220F331FFA
:10057000441FAA1F6695A9F7779530F4F30FB41FAF
:100580000A1E121E08F46395330F441FAA1F221F70
:10059000769599F7879520F4B40F0A1E121E631FF3
:1005A000440FAA1F221F331F8695A9F7862F712D8E
:1005B000602D11249F5750408AF0E1F088234AF0C3
:1005C000EE0FFF1FBB1F661F771F881F9150504003
:1005D000A9F79E3F510570F014C0A2CF5F3FECF326
:1005E000983EDCF3869577956795B795F795E795EF
:1005F0009F5FC1F7FE2B880F911D9695879597F900
:10060000089597F99F6780E870E060E008959FEF94
:1006100080EC089500240A94161617061806090699
:10062000089500240A941216130614060506089568
:10063000092E0394000C11F4882352F0BB0F40F4F0
:10064000BF2B11F460FF04C06F5F7F4F8F4F9F4F30
:100650000895A1E21A2EAA1BBB1BFD010DC0AA1F03
:10066000BB1FEE1FFF1FA217B307E407F50720F01B
:10067000A21BB30BE40BF50B661F771F881F991F96
:100680001A9469F760957095809590959B01AC01DF
:0A069000BD01CF010895F894FFCFDB
:04069A00CDCC4C3E39
:00000001FF
